{
  "address": "0x63CF5F686B36Ce7dFe7Db46f28bE43E9EB97BcB4",
  "abi": [
    {
      "inputs": [
        {
          "internalType": "address",
          "name": "token_",
          "type": "address"
        }
      ],
      "stateMutability": "nonpayable",
      "type": "constructor"
    },
    {
      "inputs": [],
      "name": "InvalidProof",
      "type": "error"
    },
    {
      "inputs": [],
      "name": "MerkleRootWasUpdated",
      "type": "error"
    },
    {
      "inputs": [],
      "name": "NothingToClaim",
      "type": "error"
    },
    {
      "inputs": [
        {
          "internalType": "address",
          "name": "owner",
          "type": "address"
        }
      ],
      "name": "OwnableInvalidOwner",
      "type": "error"
    },
    {
      "inputs": [
        {
          "internalType": "address",
          "name": "account",
          "type": "address"
        }
      ],
      "name": "OwnableUnauthorizedAccount",
      "type": "error"
    },
    {
      "inputs": [],
      "name": "SafeTransferFailed",
      "type": "error"
    },
    {
      "anonymous": false,
      "inputs": [
        {
          "indexed": true,
          "internalType": "address",
          "name": "account",
          "type": "address"
        },
        {
          "indexed": false,
          "internalType": "uint256",
          "name": "amount",
          "type": "uint256"
        }
      ],
      "name": "Claimed",
      "type": "event"
    },
    {
      "anonymous": false,
      "inputs": [
        {
          "indexed": false,
          "internalType": "bytes32",
          "name": "oldMerkleRoot",
          "type": "bytes32"
        },
        {
          "indexed": false,
          "internalType": "bytes32",
          "name": "newMerkleRoot",
          "type": "bytes32"
        }
      ],
      "name": "MerkelRootUpdated",
      "type": "event"
    },
    {
      "anonymous": false,
      "inputs": [
        {
          "indexed": true,
          "internalType": "address",
          "name": "previousOwner",
          "type": "address"
        },
        {
          "indexed": true,
          "internalType": "address",
          "name": "newOwner",
          "type": "address"
        }
      ],
      "name": "OwnershipTransferred",
      "type": "event"
    },
    {
      "inputs": [
        {
          "internalType": "address",
          "name": "account",
          "type": "address"
        },
        {
          "internalType": "uint256",
          "name": "cumulativeAmount",
          "type": "uint256"
        },
        {
          "internalType": "bytes32",
          "name": "expectedMerkleRoot",
          "type": "bytes32"
        },
        {
          "internalType": "bytes32[]",
          "name": "merkleProof",
          "type": "bytes32[]"
        }
      ],
      "name": "claim",
      "outputs": [],
      "stateMutability": "nonpayable",
      "type": "function"
    },
    {
      "inputs": [
        {
          "internalType": "address",
          "name": "",
          "type": "address"
        }
      ],
      "name": "cumulativeClaimed",
      "outputs": [
        {
          "internalType": "uint256",
          "name": "",
          "type": "uint256"
        }
      ],
      "stateMutability": "view",
      "type": "function"
    },
    {
      "inputs": [],
      "name": "merkleRoot",
      "outputs": [
        {
          "internalType": "bytes32",
          "name": "",
          "type": "bytes32"
        }
      ],
      "stateMutability": "view",
      "type": "function"
    },
    {
      "inputs": [],
      "name": "owner",
      "outputs": [
        {
          "internalType": "address",
          "name": "",
          "type": "address"
        }
      ],
      "stateMutability": "view",
      "type": "function"
    },
    {
      "inputs": [],
      "name": "renounceOwnership",
      "outputs": [],
      "stateMutability": "nonpayable",
      "type": "function"
    },
    {
      "inputs": [
        {
          "internalType": "bytes32",
          "name": "merkleRoot_",
          "type": "bytes32"
        }
      ],
      "name": "setMerkleRoot",
      "outputs": [],
      "stateMutability": "nonpayable",
      "type": "function"
    },
    {
      "inputs": [],
      "name": "token",
      "outputs": [
        {
          "internalType": "address",
          "name": "",
          "type": "address"
        }
      ],
      "stateMutability": "view",
      "type": "function"
    },
    {
      "inputs": [
        {
          "internalType": "address",
          "name": "newOwner",
          "type": "address"
        }
      ],
      "name": "transferOwnership",
      "outputs": [],
      "stateMutability": "nonpayable",
      "type": "function"
    }
  ],
  "transactionHash": "0x9ed532db5a0fddadc2e8049ecc1b3f14625af9d288c6f758c39fce44a11b3061",
  "args": [
    "0x833589fcd6edb6e08f4c7c32d4f71b54bda02913"
  ],
  "numDeployments": 1,
  "solcInputHash": "69ffb122290781f1ecc0caae24596527",
  "bytecode": "0x60a060405234801561000f575f80fd5b5060405161080938038061080983398101604081905261002e916100bd565b338061005357604051631e4fbdf760e01b81525f600482015260240160405180910390fd5b61005c8161006e565b506001600160a01b03166080526100ea565b5f80546001600160a01b038381166001600160a01b0319831681178455604051919092169283917f8be0079c531659141344cd1fd0a4f28419497f9722a3daafe3b4186f6b6457e09190a35050565b5f602082840312156100cd575f80fd5b81516001600160a01b03811681146100e3575f80fd5b9392505050565b6080516107006101095f395f818161014a01526102cc01526107005ff3fe608060405234801561000f575f80fd5b5060043610610085575f3560e01c80638da5cb5b116100585780638da5cb5b146100d5578063a991957614610113578063f2fde38b14610132578063fc0c546a14610145575f80fd5b80631d7d4ebc146100895780632eb4a7ab1461009e578063715018a6146100ba5780637cb64759146100c2575b5f80fd5b61009c610097366004610604565b61016c565b005b6100a760015481565b6040519081526020015b60405180910390f35b61009c61034d565b61009c6100d0366004610693565b610360565b5f5473ffffffffffffffffffffffffffffffffffffffff165b60405173ffffffffffffffffffffffffffffffffffffffff90911681526020016100b1565b6100a76101213660046106aa565b60026020525f908152604090205481565b61009c6101403660046106aa565b6103a9565b6100ee7f000000000000000000000000000000000000000000000000000000000000000081565b82600154146101a7576040517f2dd913f700000000000000000000000000000000000000000000000000000000815260040160405180910390fd5b6040517fffffffffffffffffffffffffffffffffffffffff000000000000000000000000606087901b166020820152603481018590525f9060540160405160208183030381529060405280519060200120905061020683838684610411565b61023c576040517f09bde33900000000000000000000000000000000000000000000000000000000815260040160405180910390fd5b73ffffffffffffffffffffffffffffffffffffffff86165f9081526002602052604090205485811061029a576040517f969bf72800000000000000000000000000000000000000000000000000000000815260040160405180910390fd5b73ffffffffffffffffffffffffffffffffffffffff8088165f908152600260205260409020879055818703906102f3907f0000000000000000000000000000000000000000000000000000000000000000168983610460565b8773ffffffffffffffffffffffffffffffffffffffff167fd8138f8a3f377c5259ca548e70e4c2de94f129f5a11036a15b69513cba2b426a8260405161033b91815260200190565b60405180910390a25050505050505050565b6103556104c7565b61035e5f610519565b565b6103686104c7565b60015460408051918252602082018390527f936fd71fceff3b4f98f4935ac269e4f94b4b25e3e38c519d3ff3db222a27117a910160405180910390a1600155565b6103b16104c7565b73ffffffffffffffffffffffffffffffffffffffff8116610405576040517f1e4fbdf70000000000000000000000000000000000000000000000000000000081525f60048201526024015b60405180910390fd5b61040e81610519565b50565b5f848460200281015b808210156104565781358085106001811461043b57815f5285602052610443565b855f52816020525b505060405f20935060208201915061041a565b5050501492915050565b61048c837fa9059cbb00000000000000000000000000000000000000000000000000000000848461058d565b6104c2576040517ffb7f507900000000000000000000000000000000000000000000000000000000815260040160405180910390fd5b505050565b5f5473ffffffffffffffffffffffffffffffffffffffff16331461035e576040517f118cdaa70000000000000000000000000000000000000000000000000000000081523360048201526024016103fc565b5f805473ffffffffffffffffffffffffffffffffffffffff8381167fffffffffffffffffffffffff0000000000000000000000000000000000000000831681178455604051919092169283917f8be0079c531659141344cd1fd0a4f28419497f9722a3daafe3b4186f6b6457e09190a35050565b5f60405184815283600482015282602482015260205f6044835f8a5af191505080156105d4573d80156105cb5760015f5114601f3d111691506105d2565b5f863b1191505b505b949350505050565b803573ffffffffffffffffffffffffffffffffffffffff811681146105ff575f80fd5b919050565b5f805f805f60808688031215610618575f80fd5b610621866105dc565b94506020860135935060408601359250606086013567ffffffffffffffff8082111561064b575f80fd5b818801915088601f83011261065e575f80fd5b81358181111561066c575f80fd5b8960208260051b8501011115610680575f80fd5b9699959850939650602001949392505050565b5f602082840312156106a3575f80fd5b5035919050565b5f602082840312156106ba575f80fd5b6106c3826105dc565b939250505056fea26469706673582212206299fb9eca7f1ad3ea36cdbeea5dc9e6cdf95b5c729a275385069629428ea46c64736f6c63430008170033",
  "devdoc": {
    "author": "1inch Network",
    "details": "This contract allows users to claim tokens based on a Merkle tree where each leaf contains the cumulative amount a user can claim. This design allows for multiple distributions without requiring users to claim from each one separately.",
    "errors": {
      "OwnableInvalidOwner(address)": [
        {
          "details": "The owner is not a valid owner account. (eg. `address(0)`)"
        }
      ],
      "OwnableUnauthorizedAccount(address)": [
        {
          "details": "The caller account is not authorized to perform an operation."
        }
      ]
    },
    "events": {
      "Claimed(address,uint256)": {
        "params": {
          "account": "The account that claimed tokens",
          "amount": "The amount of tokens claimed"
        }
      },
      "MerkelRootUpdated(bytes32,bytes32)": {
        "params": {
          "newMerkleRoot": "The new Merkle root",
          "oldMerkleRoot": "The previous Merkle root"
        }
      }
    },
    "kind": "dev",
    "methods": {
      "claim(address,uint256,bytes32,bytes32[])": {
        "details": "The cumulative amount represents the total tokens the account can claim across all distributions",
        "params": {
          "account": "The address of the account to claim for",
          "cumulativeAmount": "The total cumulative amount the account is entitled to",
          "expectedMerkleRoot": "The Merkle root the proof was generated for",
          "merkleProof": "The Merkle proof verifying the claim"
        }
      },
      "constructor": {
        "params": {
          "token_": "The address of the ERC20 token to be distributed"
        }
      },
      "owner()": {
        "details": "Returns the address of the current owner."
      },
      "renounceOwnership()": {
        "details": "Leaves the contract without owner. It will not be possible to call `onlyOwner` functions. Can only be called by the current owner. NOTE: Renouncing ownership will leave the contract without an owner, thereby disabling any functionality that is only available to the owner."
      },
      "setMerkleRoot(bytes32)": {
        "details": "Only callable by the contract owner",
        "params": {
          "merkleRoot_": "The new Merkle root to set"
        }
      },
      "transferOwnership(address)": {
        "details": "Transfers ownership of the contract to a new account (`newOwner`). Can only be called by the current owner."
      }
    },
    "title": "CumulativeMerkleDrop",
    "version": 1
  },
  "userdoc": {
    "events": {
      "Claimed(address,uint256)": {
        "notice": "Emitted when tokens are successfully claimed"
      },
      "MerkelRootUpdated(bytes32,bytes32)": {
        "notice": "Emitted when the Merkle root is updated"
      }
    },
    "kind": "user",
    "methods": {
      "claim(address,uint256,bytes32,bytes32[])": {
        "notice": "Claims tokens for a given account using a Merkle proof"
      },
      "constructor": {
        "notice": "Constructs the CumulativeMerkleDrop contract"
      },
      "cumulativeClaimed(address)": {
        "notice": "Mapping of addresses to their cumulative claimed amounts"
      },
      "merkleRoot()": {
        "notice": "The current Merkle root for the distribution"
      },
      "setMerkleRoot(bytes32)": {
        "notice": "Updates the Merkle root for the distribution"
      },
      "token()": {
        "notice": "The ERC20 token being distributed"
      }
    },
    "notice": "A contract for distributing tokens via Merkle tree proofs with cumulative claim amounts",
    "version": 1
  },
  "storageLayout": {
    "storage": [
      {
        "astId": 1109,
        "contract": "contracts/CumulativeMerkleDrop.sol:CumulativeMerkleDrop",
        "label": "_owner",
        "offset": 0,
        "slot": "0",
        "type": "t_address"
      },
      {
        "astId": 5830,
        "contract": "contracts/CumulativeMerkleDrop.sol:CumulativeMerkleDrop",
        "label": "merkleRoot",
        "offset": 0,
        "slot": "1",
        "type": "t_bytes32"
      },
      {
        "astId": 5835,
        "contract": "contracts/CumulativeMerkleDrop.sol:CumulativeMerkleDrop",
        "label": "cumulativeClaimed",
        "offset": 0,
        "slot": "2",
        "type": "t_mapping(t_address,t_uint256)"
      }
    ],
    "types": {
      "t_address": {
        "encoding": "inplace",
        "label": "address",
        "numberOfBytes": "20"
      },
      "t_bytes32": {
        "encoding": "inplace",
        "label": "bytes32",
        "numberOfBytes": "32"
      },
      "t_mapping(t_address,t_uint256)": {
        "encoding": "mapping",
        "key": "t_address",
        "label": "mapping(address => uint256)",
        "numberOfBytes": "32",
        "value": "t_uint256"
      },
      "t_uint256": {
        "encoding": "inplace",
        "label": "uint256",
        "numberOfBytes": "32"
      }
    }
  }
}